{
    "contractName": "Reputation",
    "abi": [
        {
            "inputs": [],
            "name": "getCID",
            "outputs": [
                {
                    "internalType": "string",
                    "name": "",
                    "type": "string"
                }
            ],
            "stateMutability": "view",
            "type": "function"
        },
        {
            "inputs": [
                {
                    "internalType": "address",
                    "name": "query",
                    "type": "address"
                }
            ],
            "name": "getCIDFor",
            "outputs": [
                {
                    "internalType": "string",
                    "name": "",
                    "type": "string"
                }
            ],
            "stateMutability": "view",
            "type": "function"
        },
        {
            "inputs": [],
            "name": "removeTrustRelations",
            "outputs": [],
            "stateMutability": "nonpayable",
            "type": "function"
        },
        {
            "inputs": [
                {
                    "internalType": "string",
                    "name": "CID",
                    "type": "string"
                }
            ],
            "name": "updateTrustRelations",
            "outputs": [],
            "stateMutability": "nonpayable",
            "type": "function"
        }
    ],
    "bytecode": "608060405234801561001057600080fd5b50610851806100206000396000f3fe608060405234801561001057600080fd5b506004361061004c5760003560e01c806302790e3414610051578063960ca6041461006f578063bb8d808a14610084578063e564dfb11461008c575b600080fd5b61005961009f565b6040516100669190610570565b60405180910390f35b61008261007d3660046105a0565b61025b565b005b6100826102f6565b61005961009a366004610651565b610338565b60606100e06040518060400160405280601a81526020017f534d41525420434f4e54524143543a2047455443494420257320000000000000815250336103e4565b6101be6040518060400160405280601081526020016f53746f7265642043494420697320257360801b815250600080336001600160a01b03166001600160a01b03168152602001908152602001600020805461013b9061067a565b80601f01602080910402602001604051908101604052809291908181526020018280546101679061067a565b80156101b45780601f10610189576101008083540402835291602001916101b4565b820191906000526020600020905b81548152906001019060200180831161019757829003601f168201915b5050505050610429565b33600090815260208190526040902080546101d89061067a565b80601f01602080910402602001604051908101604052809291908181526020018280546102049061067a565b80156102515780601f1061022657610100808354040283529160200191610251565b820191906000526020600020905b81548152906001019060200180831161023457829003601f168201915b5050505050905090565b61029a6040518060400160405280601a81526020017f534d41525420434f4e54524143543a2053454e44455220257320000000000000815250336103e4565b6102d96040518060400160405280601e81526020017f534d41525420434f4e54524143543a2053454e4445522043494420257320000081525082610429565b3360009081526020819052604090206102f28282610703565b5050565b61031e6040518060400160405280600781526020016674657374696e6760c81b81525061046e565b336000908152602081905260408120610336916104d5565b565b6001600160a01b038116600090815260208190526040902080546060919061035f9061067a565b80601f016020809104026020016040519081016040528092919081815260200182805461038b9061067a565b80156103d85780601f106103ad576101008083540402835291602001916103d8565b820191906000526020600020905b8154815290600101906020018083116103bb57829003601f168201915b50505050509050919050565b6102f282826040516024016103fa9291906107c3565b60408051601f198184030181529190526020810180516001600160e01b031663319af33360e01b1790526104b4565b6102f2828260405160240161043f9291906107ed565b60408051601f198184030181529190526020810180516001600160e01b0316634b5c427760e01b1790526104b4565b6104b1816040516024016104829190610570565b60408051601f198184030181529190526020810180516001600160e01b031663104c13eb60e21b1790526104b4565b50565b80516a636f6e736f6c652e6c6f67602083016000808483855afa5050505050565b5080546104e19061067a565b6000825580601f106104f1575050565b601f0160209004906000526020600020908101906104b191905b8082111561051f576000815560010161050b565b5090565b6000815180845260005b818110156105495760208185018101518683018201520161052d565b8181111561055b576000602083870101525b50601f01601f19169290920160200192915050565b6020815260006105836020830184610523565b9392505050565b634e487b7160e01b600052604160045260246000fd5b6000602082840312156105b257600080fd5b813567ffffffffffffffff808211156105ca57600080fd5b818401915084601f8301126105de57600080fd5b8135818111156105f0576105f061058a565b604051601f8201601f19908116603f011681019083821181831017156106185761061861058a565b8160405282815287602084870101111561063157600080fd5b826020860160208301376000928101602001929092525095945050505050565b60006020828403121561066357600080fd5b81356001600160a01b038116811461058357600080fd5b600181811c9082168061068e57607f821691505b6020821081036106ae57634e487b7160e01b600052602260045260246000fd5b50919050565b601f8211156106fe57600081815260208120601f850160051c810160208610156106db5750805b601f850160051c820191505b818110156106fa578281556001016106e7565b5050505b505050565b815167ffffffffffffffff81111561071d5761071d61058a565b6107318161072b845461067a565b846106b4565b602080601f831160018114610766576000841561074e5750858301515b600019600386901b1c1916600185901b1785556106fa565b600085815260208120601f198616915b8281101561079557888601518255948401946001909101908401610776565b50858210156107b35787850151600019600388901b60f8161c191681555b5050505050600190811b01905550565b6040815260006107d66040830185610523565b905060018060a01b03831660208301529392505050565b6040815260006108006040830185610523565b82810360208401526108128185610523565b9594505050505056fea264697066735822122022322e9b005ea237e3e743350e10744a8d016c6939fc7a22b1bb1d414a78f67864736f6c634300080f0033",
    "sourcePath": "/Users/jli/Desktop/Core/hardhat/contracts/Reputation.sol",
    "compiler": {
        "name": "solc",
        "version": "0.8.15+commit.e14f2714"
    },
    "functionHashes": {
        "getCID()": "02790e34",
        "getCIDFor(address)": "e564dfb1",
        "removeTrustRelations()": "bb8d808a",
        "updateTrustRelations(string)": "960ca604"
    },
    "gasEstimates": {
        "creation": {
            "codeDepositCost": "425800",
            "executionCost": "461",
            "totalCost": "426261"
        },
        "external": {
            "getCID()": "infinite",
            "getCIDFor(address)": "infinite",
            "removeTrustRelations()": "infinite",
            "updateTrustRelations(string)": "infinite"
        }
    }
}